S01D000054726166666963206C6967687420636F6E74726F6C2E73726563EF
S11300000C942A000C94F8000C943C000C943C00D2
S11300100C943C000C943C000C943C000C943C006C
S11300200C943C000C943C000C943C000C943C005C
S11300300C943C000C943C000C943C000C943C004C
S11300400C943C000C943C000C943C000C943C003C
S11300500C943C0011241FBECFE5D8E0DEBFCDBF19
S113006020E0A0E6B0E001C01D92A436B207E1F79B
S11300700E9417010C9431020C94000062E084E4A5
S11300800E94070160E081E40E940B0161E081E4C9
S11300900E940B0162E081E40E940B0160E082E4B3
S11300A00E940B0161E082E40E940B0162E082E4A1
S11300B00E940B01789485B7826085BF8BB78064FA
S11300C08BBF1092630008953DC060E081E40E94FC
S11300D00F0162E081E40E941301109263000E9408
S11300E0120260E081E40E9413018091600081307B
S11300F071F161E081E40E940F010E94120261E04B
S113010081E40E94130110926300809160008130A9
S1130110F1F060E081E40E94130161E081E40E9457
S1130120130162E081E40E940F0181E08093630087
S11301300E94120262E081E40E9413018091600037
S1130140813029F080916000882309F4BECF80912A
S113015060008130B9F780916300882319F0813001
S113016091F1F0CF62E082E40E940F010E9412023A
S113017061E082E40E940F0161E081E40E940F01CA
S11301800E94120261E082E40E94130161E081E4B2
S11301900E94130162E082E40E94130160E082E4A1
S11301A00E940F0162E081E40E940F010E9412028A
S11301B060E082E40E94130162E081E40E94130182
S11301C010926000BFCF60E082E40E940F0162E001
S11301D081E40E940F010E94120260E082E40E9406
S11301E0130162E081E40E94130110926000AACF1F
S11301F01F920F920FB60F9211248F9381E0809378
S113020060008F910F900FBE0F901F90189540E0E3
S11302100E941E01089541E00E941E01089541E0DC
S11302200E949801089540E00E94980108950E9458
S11302303E000E94640080E090E00895823431F131
S113024018F4813439F008958334E1F1843409F4E5
S113025054C0089541110CC02AB381E090E002C05B
S1130260880F991F6A95E2F7809582238ABB0895C7
S1130270413009F05CC02AB381E090E002C0880FED
S1130280991F6A95E2F7822B8ABB089541110CC02D
S113029027B381E090E002C0880F991F6A95E2F7C6
S11302A08095822387BB0895413009F040C027B36D
S11302B081E090E002C0880F991F6A95E2F7822BD3
S11302C087BB089541110CC024B381E090E002C0C3
S11302D0880F991F6A95E2F78095822384BB08955D
S11302E0413029F524B381E090E002C0880F991FC2
S11302F06A95E2F7822B84BB089541110CC021B3A7
S113030081E090E002C0880F991F6A95E2F780951A
S1130310822381BB0895413051F421B381E090E000
S113032002C0880F991F6A95E2F7822B81BB08955A
S1130330823431F118F4813439F008958334E1F1D1
S1130340843409F454C0089541110CC02BB381E0E6
S113035090E002C0880F991F6A95E2F78095822386
S11303608BBB0895413009F05CC02BB381E090E071
S113037002C0880F991F6A95E2F7822B8BBB089500
S113038041110CC028B381E090E002C0880F991F8E
S11303906A95E2F78095822388BB0895413009F07D
S11303A040C028B381E090E002C0880F991F6A958D
S11303B0E2F7822B88BB089541110CC025B381E07C
S11303C090E002C0880F991F6A95E2F78095822316
S11303D085BB0895413029F525B381E090E002C042
S11303E0880F991F6A95E2F7822B85BB0895411106
S11303F00CC022B381E090E002C0880F991F6A9577
S1130400E2F78095822382BB0895413051F422B3F0
S113041081E090E002C0880F991F6A95E2F7822B71
S113042082BB089583B7816083BF0FC008B600FE06
S1130430FDCF88B7816088BF809161009091620090
S11304400196909362008093610080916100909185
S113045062008031974250F3109262001092610062
S10904600895F894FFCF9B
S9030000FC
